{"contracts/SecureDocumentTransfer.sol":{"SecureDocumentTransfer":{"abi":[{"anonymous":false,"inputs":[{"indexed":false,"internalType":"string","name":"docHash","type":"string"},{"indexed":false,"internalType":"string","name":"docName","type":"string"},{"indexed":true,"internalType":"address","name":"owner","type":"address"}],"name":"DocumentRegistered","type":"event"},{"anonymous":false,"inputs":[{"indexed":false,"internalType":"string","name":"docHash","type":"string"},{"indexed":true,"internalType":"address","name":"from","type":"address"},{"indexed":true,"internalType":"address","name":"to","type":"address"}],"name":"DocumentTransferred","type":"event"},{"inputs":[{"internalType":"string","name":"_docHash","type":"string"}],"name":"getDocument","outputs":[{"internalType":"string","name":"docName","type":"string"},{"internalType":"address","name":"owner","type":"address"},{"internalType":"uint256","name":"timestamp","type":"uint256"}],"stateMutability":"view","type":"function"},{"inputs":[{"internalType":"string","name":"_docHash","type":"string"},{"internalType":"string","name":"_docName","type":"string"}],"name":"registerDocument","outputs":[],"stateMutability":"nonpayable","type":"function"},{"inputs":[{"internalType":"string","name":"_docHash","type":"string"},{"internalType":"address","name":"_newOwner","type":"address"}],"name":"transferDocument","outputs":[],"stateMutability":"nonpayable","type":"function"}],"evm":{"bytecode":{"linkReferences":{},"object":"608060405234801561001057600080fd5b50610f9a806100206000396000f3fe608060405234801561001057600080fd5b50600436106100415760003560e01c80631c49ea91146100465780637ccb6a6414610062578063faff6eb514610094575b600080fd5b610060600480360381019061005b91906107ca565b6100b0565b005b61007c60048036038101906100779190610842565b610248565b60405161008b93929190610964565b60405180910390f35b6100ae60048036038101906100a991906109ce565b610489565b005b600080836040516100c19190610a66565b908152602001604051809103902060000180546100dd90610aac565b90501461011f576040517f08c379a000000000000000000000000000000000000000000000000000000000815260040161011690610b29565b60405180910390fd5b60405180608001604052808381526020018281526020013373ffffffffffffffffffffffffffffffffffffffff168152602001428152506000836040516101669190610a66565b908152602001604051809103902060008201518160000190816101899190610cf5565b50602082015181600101908161019f9190610cf5565b5060408201518160020160006101000a81548173ffffffffffffffffffffffffffffffffffffffff021916908373ffffffffffffffffffffffffffffffffffffffff160217905550606082015181600301559050503373ffffffffffffffffffffffffffffffffffffffff167f5492a76eb326b010759123732d35cb2885698a27b0f7b5e56779f227db15c9d2838360405161023c929190610dc7565b60405180910390a25050565b60606000806000808560405161025e9190610a66565b9081526020016040518091039020600001805461027a90610aac565b9050036102bc576040517f08c379a00000000000000000000000000000000000000000000000000000000081526004016102b390610e4a565b60405180910390fd5b600080856040516102cd9190610a66565b90815260200160405180910390206040518060800160405290816000820180546102f690610aac565b80601f016020809104026020016040519081016040528092919081815260200182805461032290610aac565b801561036f5780601f106103445761010080835404028352916020019161036f565b820191906000526020600020905b81548152906001019060200180831161035257829003601f168201915b5050505050815260200160018201805461038890610aac565b80601f01602080910402602001604051908101604052809291908181526020018280546103b490610aac565b80156104015780601f106103d657610100808354040283529160200191610401565b820191906000526020600020905b8154815290600101906020018083116103e457829003601f168201915b505050505081526020016002820160009054906101000a900473ffffffffffffffffffffffffffffffffffffffff1673ffffffffffffffffffffffffffffffffffffffff1673ffffffffffffffffffffffffffffffffffffffff1681526020016003820154815250509050806020015181604001518260600151935093509350509193909250565b3373ffffffffffffffffffffffffffffffffffffffff166000836040516104b09190610a66565b908152602001604051809103902060020160009054906101000a900473ffffffffffffffffffffffffffffffffffffffff1673ffffffffffffffffffffffffffffffffffffffff1614610538576040517f08c379a000000000000000000000000000000000000000000000000000000000815260040161052f90610eb6565b60405180910390fd5b600073ffffffffffffffffffffffffffffffffffffffff168173ffffffffffffffffffffffffffffffffffffffff16036105a7576040517f08c379a000000000000000000000000000000000000000000000000000000000815260040161059e90610f22565b60405180910390fd5b806000836040516105b89190610a66565b908152602001604051809103902060020160006101000a81548173ffffffffffffffffffffffffffffffffffffffff021916908373ffffffffffffffffffffffffffffffffffffffff1602179055508073ffffffffffffffffffffffffffffffffffffffff163373ffffffffffffffffffffffffffffffffffffffff167fa94d757639efc91e9f6715ecf73e64a1ff2533ffca5421a65dfebdae7321151d846040516106649190610f42565b60405180910390a35050565b6000604051905090565b600080fd5b600080fd5b600080fd5b600080fd5b6000601f19601f8301169050919050565b7f4e487b7100000000000000000000000000000000000000000000000000000000600052604160045260246000fd5b6106d78261068e565b810181811067ffffffffffffffff821117156106f6576106f561069f565b5b80604052505050565b6000610709610670565b905061071582826106ce565b919050565b600067ffffffffffffffff8211156107355761073461069f565b5b61073e8261068e565b9050602081019050919050565b82818337600083830152505050565b600061076d6107688461071a565b6106ff565b90508281526020810184848401111561078957610788610689565b5b61079484828561074b565b509392505050565b600082601f8301126107b1576107b0610684565b5b81356107c184826020860161075a565b91505092915050565b600080604083850312156107e1576107e061067a565b5b600083013567ffffffffffffffff8111156107ff576107fe61067f565b5b61080b8582860161079c565b925050602083013567ffffffffffffffff81111561082c5761082b61067f565b5b6108388582860161079c565b9150509250929050565b6000602082840312156108585761085761067a565b5b600082013567ffffffffffffffff8111156108765761087561067f565b5b6108828482850161079c565b91505092915050565b600081519050919050565b600082825260208201905092915050565b60005b838110156108c55780820151818401526020810190506108aa565b60008484015250505050565b60006108dc8261088b565b6108e68185610896565b93506108f68185602086016108a7565b6108ff8161068e565b840191505092915050565b600073ffffffffffffffffffffffffffffffffffffffff82169050919050565b60006109358261090a565b9050919050565b6109458161092a565b82525050565b6000819050919050565b61095e8161094b565b82525050565b6000606082019050818103600083015261097e81866108d1565b905061098d602083018561093c565b61099a6040830184610955565b949350505050565b6109ab8161092a565b81146109b657600080fd5b50565b6000813590506109c8816109a2565b92915050565b600080604083850312156109e5576109e461067a565b5b600083013567ffffffffffffffff811115610a0357610a0261067f565b5b610a0f8582860161079c565b9250506020610a20858286016109b9565b9150509250929050565b600081905092915050565b6000610a408261088b565b610a4a8185610a2a565b9350610a5a8185602086016108a7565b80840191505092915050565b6000610a728284610a35565b915081905092915050565b7f4e487b7100000000000000000000000000000000000000000000000000000000600052602260045260246000fd5b60006002820490506001821680610ac457607f821691505b602082108103610ad757610ad6610a7d565b5b50919050565b7f446f6b756d656e207375646168207465726461667461722e0000000000000000600082015250565b6000610b13601883610896565b9150610b1e82610add565b602082019050919050565b60006020820190508181036000830152610b4281610b06565b9050919050565b60008190508160005260206000209050919050565b60006020601f8301049050919050565b600082821b905092915050565b600060088302610bab7fffffffffffffffffffffffffffffffffffffffffffffffffffffffffffffffff82610b6e565b610bb58683610b6e565b95508019841693508086168417925050509392505050565b6000819050919050565b6000610bf2610bed610be88461094b565b610bcd565b61094b565b9050919050565b6000819050919050565b610c0c83610bd7565b610c20610c1882610bf9565b848454610b7b565b825550505050565b600090565b610c35610c28565b610c40818484610c03565b505050565b5b81811015610c6457610c59600082610c2d565b600181019050610c46565b5050565b601f821115610ca957610c7a81610b49565b610c8384610b5e565b81016020851015610c92578190505b610ca6610c9e85610b5e565b830182610c45565b50505b505050565b600082821c905092915050565b6000610ccc60001984600802610cae565b1980831691505092915050565b6000610ce58383610cbb565b9150826002028217905092915050565b610cfe8261088b565b67ffffffffffffffff811115610d1757610d1661069f565b5b610d218254610aac565b610d2c828285610c68565b600060209050601f831160018114610d5f5760008415610d4d578287015190505b610d578582610cd9565b865550610dbf565b601f198416610d6d86610b49565b60005b82811015610d9557848901518255600182019150602085019450602081019050610d70565b86831015610db25784890151610dae601f891682610cbb565b8355505b6001600288020188555050505b505050505050565b60006040820190508181036000830152610de181856108d1565b90508181036020830152610df581846108d1565b90509392505050565b7f446f6b756d656e20746964616b20646974656d756b616e2e0000000000000000600082015250565b6000610e34601883610896565b9150610e3f82610dfe565b602082019050919050565b60006020820190508181036000830152610e6381610e27565b9050919050565b7f416e64612062756b616e2070656d696c696b20646f6b756d656e20696e692e00600082015250565b6000610ea0601f83610896565b9150610eab82610e6a565b602082019050919050565b60006020820190508181036000830152610ecf81610e93565b9050919050565b7f416c616d61742070656e6572696d6120746964616b2076616c69642e00000000600082015250565b6000610f0c601c83610896565b9150610f1782610ed6565b602082019050919050565b60006020820190508181036000830152610f3b81610eff565b9050919050565b60006020820190508181036000830152610f5c81846108d1565b90509291505056fea26469706673582212203e354e278633217c474decf2f80c92fb5b2e7104925b012de504761dea7fead164736f6c63430008140033","opcodes":"PUSH1 0x80 PUSH1 0x40 MSTORE CALLVALUE DUP1 ISZERO PUSH2 0x10 JUMPI PUSH1 0x0 DUP1 REVERT JUMPDEST POP PUSH2 0xF9A DUP1 PUSH2 0x20 PUSH1 0x0 CODECOPY PUSH1 0x0 RETURN INVALID PUSH1 0x80 PUSH1 0x40 MSTORE CALLVALUE DUP1 ISZERO PUSH2 0x10 JUMPI PUSH1 0x0 DUP1 REVERT JUMPDEST POP PUSH1 0x4 CALLDATASIZE LT PUSH2 0x41 JUMPI PUSH1 0x0 CALLDATALOAD PUSH1 0xE0 SHR DUP1 PUSH4 0x1C49EA91 EQ PUSH2 0x46 JUMPI DUP1 PUSH4 0x7CCB6A64 EQ PUSH2 0x62 JUMPI DUP1 PUSH4 0xFAFF6EB5 EQ PUSH2 0x94 JUMPI JUMPDEST PUSH1 0x0 DUP1 REVERT JUMPDEST PUSH2 0x60 PUSH1 0x4 DUP1 CALLDATASIZE SUB DUP2 ADD SWAP1 PUSH2 0x5B SWAP2 SWAP1 PUSH2 0x7CA JUMP JUMPDEST PUSH2 0xB0 JUMP JUMPDEST STOP JUMPDEST PUSH2 0x7C PUSH1 0x4 DUP1 CALLDATASIZE SUB DUP2 ADD SWAP1 PUSH2 0x77 SWAP2 SWAP1 PUSH2 0x842 JUMP JUMPDEST PUSH2 0x248 JUMP JUMPDEST PUSH1 0x40 MLOAD PUSH2 0x8B SWAP4 SWAP3 SWAP2 SWAP1 PUSH2 0x964 JUMP JUMPDEST PUSH1 0x40 MLOAD DUP1 SWAP2 SUB SWAP1 RETURN JUMPDEST PUSH2 0xAE PUSH1 0x4 DUP1 CALLDATASIZE SUB DUP2 ADD SWAP1 PUSH2 0xA9 SWAP2 SWAP1 PUSH2 0x9CE JUMP JUMPDEST PUSH2 0x489 JUMP JUMPDEST STOP JUMPDEST PUSH1 0x0 DUP1 DUP4 PUSH1 0x40 MLOAD PUSH2 0xC1 SWAP2 SWAP1 PUSH2 0xA66 JUMP JUMPDEST SWAP1 DUP2 MSTORE PUSH1 0x20 ADD PUSH1 0x40 MLOAD DUP1 SWAP2 SUB SWAP1 KECCAK256 PUSH1 0x0 ADD DUP1 SLOAD PUSH2 0xDD SWAP1 PUSH2 0xAAC JUMP JUMPDEST SWAP1 POP EQ PUSH2 0x11F JUMPI PUSH1 0x40 MLOAD PUSH32 0x8C379A000000000000000000000000000000000000000000000000000000000 DUP2 MSTORE PUSH1 0x4 ADD PUSH2 0x116 SWAP1 PUSH2 0xB29 JUMP JUMPDEST PUSH1 0x40 MLOAD DUP1 SWAP2 SUB SWAP1 REVERT JUMPDEST PUSH1 0x40 MLOAD DUP1 PUSH1 0x80 ADD PUSH1 0x40 MSTORE DUP1 DUP4 DUP2 MSTORE PUSH1 0x20 ADD DUP3 DUP2 MSTORE PUSH1 0x20 ADD CALLER PUSH20 0xFFFFFFFFFFFFFFFFFFFFFFFFFFFFFFFFFFFFFFFF AND DUP2 MSTORE PUSH1 0x20 ADD TIMESTAMP DUP2 MSTORE POP PUSH1 0x0 DUP4 PUSH1 0x40 MLOAD PUSH2 0x166 SWAP2 SWAP1 PUSH2 0xA66 JUMP JUMPDEST SWAP1 DUP2 MSTORE PUSH1 0x20 ADD PUSH1 0x40 MLOAD DUP1 SWAP2 SUB SWAP1 KECCAK256 PUSH1 0x0 DUP3 ADD MLOAD DUP2 PUSH1 0x0 ADD SWAP1 DUP2 PUSH2 0x189 SWAP2 SWAP1 PUSH2 0xCF5 JUMP JUMPDEST POP PUSH1 0x20 DUP3 ADD MLOAD DUP2 PUSH1 0x1 ADD SWAP1 DUP2 PUSH2 0x19F SWAP2 SWAP1 PUSH2 0xCF5 JUMP JUMPDEST POP PUSH1 0x40 DUP3 ADD MLOAD DUP2 PUSH1 0x2 ADD PUSH1 0x0 PUSH2 0x100 EXP DUP2 SLOAD DUP2 PUSH20 0xFFFFFFFFFFFFFFFFFFFFFFFFFFFFFFFFFFFFFFFF MUL NOT AND SWAP1 DUP4 PUSH20 0xFFFFFFFFFFFFFFFFFFFFFFFFFFFFFFFFFFFFFFFF AND MUL OR SWAP1 SSTORE POP PUSH1 0x60 DUP3 ADD MLOAD DUP2 PUSH1 0x3 ADD SSTORE SWAP1 POP POP CALLER PUSH20 0xFFFFFFFFFFFFFFFFFFFFFFFFFFFFFFFFFFFFFFFF AND PUSH32 0x5492A76EB326B010759123732D35CB2885698A27B0F7B5E56779F227DB15C9D2 DUP4 DUP4 PUSH1 0x40 MLOAD PUSH2 0x23C SWAP3 SWAP2 SWAP1 PUSH2 0xDC7 JUMP JUMPDEST PUSH1 0x40 MLOAD DUP1 SWAP2 SUB SWAP1 LOG2 POP POP JUMP JUMPDEST PUSH1 0x60 PUSH1 0x0 DUP1 PUSH1 0x0 DUP1 DUP6 PUSH1 0x40 MLOAD PUSH2 0x25E SWAP2 SWAP1 PUSH2 0xA66 JUMP JUMPDEST SWAP1 DUP2 MSTORE PUSH1 0x20 ADD PUSH1 0x40 MLOAD DUP1 SWAP2 SUB SWAP1 KECCAK256 PUSH1 0x0 ADD DUP1 SLOAD PUSH2 0x27A SWAP1 PUSH2 0xAAC JUMP JUMPDEST SWAP1 POP SUB PUSH2 0x2BC JUMPI PUSH1 0x40 MLOAD PUSH32 0x8C379A000000000000000000000000000000000000000000000000000000000 DUP2 MSTORE PUSH1 0x4 ADD PUSH2 0x2B3 SWAP1 PUSH2 0xE4A JUMP JUMPDEST PUSH1 0x40 MLOAD DUP1 SWAP2 SUB SWAP1 REVERT JUMPDEST PUSH1 0x0 DUP1 DUP6 PUSH1 0x40 MLOAD PUSH2 0x2CD SWAP2 SWAP1 PUSH2 0xA66 JUMP JUMPDEST SWAP1 DUP2 MSTORE PUSH1 0x20 ADD PUSH1 0x40 MLOAD DUP1 SWAP2 SUB SWAP1 KECCAK256 PUSH1 0x40 MLOAD DUP1 PUSH1 0x80 ADD PUSH1 0x40 MSTORE SWAP1 DUP2 PUSH1 0x0 DUP3 ADD DUP1 SLOAD PUSH2 0x2F6 SWAP1 PUSH2 0xAAC JUMP JUMPDEST DUP1 PUSH1 0x1F ADD PUSH1 0x20 DUP1 SWAP2 DIV MUL PUSH1 0x20 ADD PUSH1 0x40 MLOAD SWAP1 DUP2 ADD PUSH1 0x40 MSTORE DUP1 SWAP3 SWAP2 SWAP1 DUP2 DUP2 MSTORE PUSH1 0x20 ADD DUP3 DUP1 SLOAD PUSH2 0x322 SWAP1 PUSH2 0xAAC JUMP JUMPDEST DUP1 ISZERO PUSH2 0x36F JUMPI DUP1 PUSH1 0x1F LT PUSH2 0x344 JUMPI PUSH2 0x100 DUP1 DUP4 SLOAD DIV MUL DUP4 MSTORE SWAP2 PUSH1 0x20 ADD SWAP2 PUSH2 0x36F JUMP JUMPDEST DUP3 ADD SWAP2 SWAP1 PUSH1 0x0 MSTORE PUSH1 0x20 PUSH1 0x0 KECCAK256 SWAP1 JUMPDEST DUP2 SLOAD DUP2 MSTORE SWAP1 PUSH1 0x1 ADD SWAP1 PUSH1 0x20 ADD DUP1 DUP4 GT PUSH2 0x352 JUMPI DUP3 SWAP1 SUB PUSH1 0x1F AND DUP3 ADD SWAP2 JUMPDEST POP POP POP POP POP DUP2 MSTORE PUSH1 0x20 ADD PUSH1 0x1 DUP3 ADD DUP1 SLOAD PUSH2 0x388 SWAP1 PUSH2 0xAAC JUMP JUMPDEST DUP1 PUSH1 0x1F ADD PUSH1 0x20 DUP1 SWAP2 DIV MUL PUSH1 0x20 ADD PUSH1 0x40 MLOAD SWAP1 DUP2 ADD PUSH1 0x40 MSTORE DUP1 SWAP3 SWAP2 SWAP1 DUP2 DUP2 MSTORE PUSH1 0x20 ADD DUP3 DUP1 SLOAD PUSH2 0x3B4 SWAP1 PUSH2 0xAAC JUMP JUMPDEST DUP1 ISZERO PUSH2 0x401 JUMPI DUP1 PUSH1 0x1F LT PUSH2 0x3D6 JUMPI PUSH2 0x100 DUP1 DUP4 SLOAD DIV MUL DUP4 MSTORE SWAP2 PUSH1 0x20 ADD SWAP2 PUSH2 0x401 JUMP JUMPDEST DUP3 ADD SWAP2 SWAP1 PUSH1 0x0 MSTORE PUSH1 0x20 PUSH1 0x0 KECCAK256 SWAP1 JUMPDEST DUP2 SLOAD DUP2 MSTORE SWAP1 PUSH1 0x1 ADD SWAP1 PUSH1 0x20 ADD DUP1 DUP4 GT PUSH2 0x3E4 JUMPI DUP3 SWAP1 SUB PUSH1 0x1F AND DUP3 ADD SWAP2 JUMPDEST POP POP POP POP POP DUP2 MSTORE PUSH1 0x20 ADD PUSH1 0x2 DUP3 ADD PUSH1 0x0 SWAP1 SLOAD SWAP1 PUSH2 0x100 EXP SWAP1 DIV PUSH20 0xFFFFFFFFFFFFFFFFFFFFFFFFFFFFFFFFFFFFFFFF AND PUSH20 0xFFFFFFFFFFFFFFFFFFFFFFFFFFFFFFFFFFFFFFFF AND PUSH20 0xFFFFFFFFFFFFFFFFFFFFFFFFFFFFFFFFFFFFFFFF AND DUP2 MSTORE PUSH1 0x20 ADD PUSH1 0x3 DUP3 ADD SLOAD DUP2 MSTORE POP POP SWAP1 POP DUP1 PUSH1 0x20 ADD MLOAD DUP2 PUSH1 0x40 ADD MLOAD DUP3 PUSH1 0x60 ADD MLOAD SWAP4 POP SWAP4 POP SWAP4 POP POP SWAP2 SWAP4 SWAP1 SWAP3 POP JUMP JUMPDEST CALLER PUSH20 0xFFFFFFFFFFFFFFFFFFFFFFFFFFFFFFFFFFFFFFFF AND PUSH1 0x0 DUP4 PUSH1 0x40 MLOAD PUSH2 0x4B0 SWAP2 SWAP1 PUSH2 0xA66 JUMP JUMPDEST SWAP1 DUP2 MSTORE PUSH1 0x20 ADD PUSH1 0x40 MLOAD DUP1 SWAP2 SUB SWAP1 KECCAK256 PUSH1 0x2 ADD PUSH1 0x0 SWAP1 SLOAD SWAP1 PUSH2 0x100 EXP SWAP1 DIV PUSH20 0xFFFFFFFFFFFFFFFFFFFFFFFFFFFFFFFFFFFFFFFF AND PUSH20 0xFFFFFFFFFFFFFFFFFFFFFFFFFFFFFFFFFFFFFFFF AND EQ PUSH2 0x538 JUMPI PUSH1 0x40 MLOAD PUSH32 0x8C379A000000000000000000000000000000000000000000000000000000000 DUP2 MSTORE PUSH1 0x4 ADD PUSH2 0x52F SWAP1 PUSH2 0xEB6 JUMP JUMPDEST PUSH1 0x40 MLOAD DUP1 SWAP2 SUB SWAP1 REVERT JUMPDEST PUSH1 0x0 PUSH20 0xFFFFFFFFFFFFFFFFFFFFFFFFFFFFFFFFFFFFFFFF AND DUP2 PUSH20 0xFFFFFFFFFFFFFFFFFFFFFFFFFFFFFFFFFFFFFFFF AND SUB PUSH2 0x5A7 JUMPI PUSH1 0x40 MLOAD PUSH32 0x8C379A000000000000000000000000000000000000000000000000000000000 DUP2 MSTORE PUSH1 0x4 ADD PUSH2 0x59E SWAP1 PUSH2 0xF22 JUMP JUMPDEST PUSH1 0x40 MLOAD DUP1 SWAP2 SUB SWAP1 REVERT JUMPDEST DUP1 PUSH1 0x0 DUP4 PUSH1 0x40 MLOAD PUSH2 0x5B8 SWAP2 SWAP1 PUSH2 0xA66 JUMP JUMPDEST SWAP1 DUP2 MSTORE PUSH1 0x20 ADD PUSH1 0x40 MLOAD DUP1 SWAP2 SUB SWAP1 KECCAK256 PUSH1 0x2 ADD PUSH1 0x0 PUSH2 0x100 EXP DUP2 SLOAD DUP2 PUSH20 0xFFFFFFFFFFFFFFFFFFFFFFFFFFFFFFFFFFFFFFFF MUL NOT AND SWAP1 DUP4 PUSH20 0xFFFFFFFFFFFFFFFFFFFFFFFFFFFFFFFFFFFFFFFF AND MUL OR SWAP1 SSTORE POP DUP1 PUSH20 0xFFFFFFFFFFFFFFFFFFFFFFFFFFFFFFFFFFFFFFFF AND CALLER PUSH20 0xFFFFFFFFFFFFFFFFFFFFFFFFFFFFFFFFFFFFFFFF AND PUSH32 0xA94D757639EFC91E9F6715ECF73E64A1FF2533FFCA5421A65DFEBDAE7321151D DUP5 PUSH1 0x40 MLOAD PUSH2 0x664 SWAP2 SWAP1 PUSH2 0xF42 JUMP JUMPDEST PUSH1 0x40 MLOAD DUP1 SWAP2 SUB SWAP1 LOG3 POP POP JUMP JUMPDEST PUSH1 0x0 PUSH1 0x40 MLOAD SWAP1 POP SWAP1 JUMP JUMPDEST PUSH1 0x0 DUP1 REVERT JUMPDEST PUSH1 0x0 DUP1 REVERT JUMPDEST PUSH1 0x0 DUP1 REVERT JUMPDEST PUSH1 0x0 DUP1 REVERT JUMPDEST PUSH1 0x0 PUSH1 0x1F NOT PUSH1 0x1F DUP4 ADD AND SWAP1 POP SWAP2 SWAP1 POP JUMP JUMPDEST PUSH32 0x4E487B7100000000000000000000000000000000000000000000000000000000 PUSH1 0x0 MSTORE PUSH1 0x41 PUSH1 0x4 MSTORE PUSH1 0x24 PUSH1 0x0 REVERT JUMPDEST PUSH2 0x6D7 DUP3 PUSH2 0x68E JUMP JUMPDEST DUP2 ADD DUP2 DUP2 LT PUSH8 0xFFFFFFFFFFFFFFFF DUP3 GT OR ISZERO PUSH2 0x6F6 JUMPI PUSH2 0x6F5 PUSH2 0x69F JUMP JUMPDEST JUMPDEST DUP1 PUSH1 0x40 MSTORE POP POP POP JUMP JUMPDEST PUSH1 0x0 PUSH2 0x709 PUSH2 0x670 JUMP JUMPDEST SWAP1 POP PUSH2 0x715 DUP3 DUP3 PUSH2 0x6CE JUMP JUMPDEST SWAP2 SWAP1 POP JUMP JUMPDEST PUSH1 0x0 PUSH8 0xFFFFFFFFFFFFFFFF DUP3 GT ISZERO PUSH2 0x735 JUMPI PUSH2 0x734 PUSH2 0x69F JUMP JUMPDEST JUMPDEST PUSH2 0x73E DUP3 PUSH2 0x68E JUMP JUMPDEST SWAP1 POP PUSH1 0x20 DUP2 ADD SWAP1 POP SWAP2 SWAP1 POP JUMP JUMPDEST DUP3 DUP2 DUP4 CALLDATACOPY PUSH1 0x0 DUP4 DUP4 ADD MSTORE POP POP POP JUMP JUMPDEST PUSH1 0x0 PUSH2 0x76D PUSH2 0x768 DUP5 PUSH2 0x71A JUMP JUMPDEST PUSH2 0x6FF JUMP JUMPDEST SWAP1 POP DUP3 DUP2 MSTORE PUSH1 0x20 DUP2 ADD DUP5 DUP5 DUP5 ADD GT ISZERO PUSH2 0x789 JUMPI PUSH2 0x788 PUSH2 0x689 JUMP JUMPDEST JUMPDEST PUSH2 0x794 DUP5 DUP3 DUP6 PUSH2 0x74B JUMP JUMPDEST POP SWAP4 SWAP3 POP POP POP JUMP JUMPDEST PUSH1 0x0 DUP3 PUSH1 0x1F DUP4 ADD SLT PUSH2 0x7B1 JUMPI PUSH2 0x7B0 PUSH2 0x684 JUMP JUMPDEST JUMPDEST DUP2 CALLDATALOAD PUSH2 0x7C1 DUP5 DUP3 PUSH1 0x20 DUP7 ADD PUSH2 0x75A JUMP JUMPDEST SWAP2 POP POP SWAP3 SWAP2 POP POP JUMP JUMPDEST PUSH1 0x0 DUP1 PUSH1 0x40 DUP4 DUP6 SUB SLT ISZERO PUSH2 0x7E1 JUMPI PUSH2 0x7E0 PUSH2 0x67A JUMP JUMPDEST JUMPDEST PUSH1 0x0 DUP4 ADD CALLDATALOAD PUSH8 0xFFFFFFFFFFFFFFFF DUP2 GT ISZERO PUSH2 0x7FF JUMPI PUSH2 0x7FE PUSH2 0x67F JUMP JUMPDEST JUMPDEST PUSH2 0x80B DUP6 DUP3 DUP7 ADD PUSH2 0x79C JUMP JUMPDEST SWAP3 POP POP PUSH1 0x20 DUP4 ADD CALLDATALOAD PUSH8 0xFFFFFFFFFFFFFFFF DUP2 GT ISZERO PUSH2 0x82C JUMPI PUSH2 0x82B PUSH2 0x67F JUMP JUMPDEST JUMPDEST PUSH2 0x838 DUP6 DUP3 DUP7 ADD PUSH2 0x79C JUMP JUMPDEST SWAP2 POP POP SWAP3 POP SWAP3 SWAP1 POP JUMP JUMPDEST PUSH1 0x0 PUSH1 0x20 DUP3 DUP5 SUB SLT ISZERO PUSH2 0x858 JUMPI PUSH2 0x857 PUSH2 0x67A JUMP JUMPDEST JUMPDEST PUSH1 0x0 DUP3 ADD CALLDATALOAD PUSH8 0xFFFFFFFFFFFFFFFF DUP2 GT ISZERO PUSH2 0x876 JUMPI PUSH2 0x875 PUSH2 0x67F JUMP JUMPDEST JUMPDEST PUSH2 0x882 DUP5 DUP3 DUP6 ADD PUSH2 0x79C JUMP JUMPDEST SWAP2 POP POP SWAP3 SWAP2 POP POP JUMP JUMPDEST PUSH1 0x0 DUP2 MLOAD SWAP1 POP SWAP2 SWAP1 POP JUMP JUMPDEST PUSH1 0x0 DUP3 DUP3 MSTORE PUSH1 0x20 DUP3 ADD SWAP1 POP SWAP3 SWAP2 POP POP JUMP JUMPDEST PUSH1 0x0 JUMPDEST DUP4 DUP2 LT ISZERO PUSH2 0x8C5 JUMPI DUP1 DUP3 ADD MLOAD DUP2 DUP5 ADD MSTORE PUSH1 0x20 DUP2 ADD SWAP1 POP PUSH2 0x8AA JUMP JUMPDEST PUSH1 0x0 DUP5 DUP5 ADD MSTORE POP POP POP POP JUMP JUMPDEST PUSH1 0x0 PUSH2 0x8DC DUP3 PUSH2 0x88B JUMP JUMPDEST PUSH2 0x8E6 DUP2 DUP6 PUSH2 0x896 JUMP JUMPDEST SWAP4 POP PUSH2 0x8F6 DUP2 DUP6 PUSH1 0x20 DUP7 ADD PUSH2 0x8A7 JUMP JUMPDEST PUSH2 0x8FF DUP2 PUSH2 0x68E JUMP JUMPDEST DUP5 ADD SWAP2 POP POP SWAP3 SWAP2 POP POP JUMP JUMPDEST PUSH1 0x0 PUSH20 0xFFFFFFFFFFFFFFFFFFFFFFFFFFFFFFFFFFFFFFFF DUP3 AND SWAP1 POP SWAP2 SWAP1 POP JUMP JUMPDEST PUSH1 0x0 PUSH2 0x935 DUP3 PUSH2 0x90A JUMP JUMPDEST SWAP1 POP SWAP2 SWAP1 POP JUMP JUMPDEST PUSH2 0x945 DUP2 PUSH2 0x92A JUMP JUMPDEST DUP3 MSTORE POP POP JUMP JUMPDEST PUSH1 0x0 DUP2 SWAP1 POP SWAP2 SWAP1 POP JUMP JUMPDEST PUSH2 0x95E DUP2 PUSH2 0x94B JUMP JUMPDEST DUP3 MSTORE POP POP JUMP JUMPDEST PUSH1 0x0 PUSH1 0x60 DUP3 ADD SWAP1 POP DUP2 DUP2 SUB PUSH1 0x0 DUP4 ADD MSTORE PUSH2 0x97E DUP2 DUP7 PUSH2 0x8D1 JUMP JUMPDEST SWAP1 POP PUSH2 0x98D PUSH1 0x20 DUP4 ADD DUP6 PUSH2 0x93C JUMP JUMPDEST PUSH2 0x99A PUSH1 0x40 DUP4 ADD DUP5 PUSH2 0x955 JUMP JUMPDEST SWAP5 SWAP4 POP POP POP POP JUMP JUMPDEST PUSH2 0x9AB DUP2 PUSH2 0x92A JUMP JUMPDEST DUP2 EQ PUSH2 0x9B6 JUMPI PUSH1 0x0 DUP1 REVERT JUMPDEST POP JUMP JUMPDEST PUSH1 0x0 DUP2 CALLDATALOAD SWAP1 POP PUSH2 0x9C8 DUP2 PUSH2 0x9A2 JUMP JUMPDEST SWAP3 SWAP2 POP POP JUMP JUMPDEST PUSH1 0x0 DUP1 PUSH1 0x40 DUP4 DUP6 SUB SLT ISZERO PUSH2 0x9E5 JUMPI PUSH2 0x9E4 PUSH2 0x67A JUMP JUMPDEST JUMPDEST PUSH1 0x0 DUP4 ADD CALLDATALOAD PUSH8 0xFFFFFFFFFFFFFFFF DUP2 GT ISZERO PUSH2 0xA03 JUMPI PUSH2 0xA02 PUSH2 0x67F JUMP JUMPDEST JUMPDEST PUSH2 0xA0F DUP6 DUP3 DUP7 ADD PUSH2 0x79C JUMP JUMPDEST SWAP3 POP POP PUSH1 0x20 PUSH2 0xA20 DUP6 DUP3 DUP7 ADD PUSH2 0x9B9 JUMP JUMPDEST SWAP2 POP POP SWAP3 POP SWAP3 SWAP1 POP JUMP JUMPDEST PUSH1 0x0 DUP2 SWAP1 POP SWAP3 SWAP2 POP POP JUMP JUMPDEST PUSH1 0x0 PUSH2 0xA40 DUP3 PUSH2 0x88B JUMP JUMPDEST PUSH2 0xA4A DUP2 DUP6 PUSH2 0xA2A JUMP JUMPDEST SWAP4 POP PUSH2 0xA5A DUP2 DUP6 PUSH1 0x20 DUP7 ADD PUSH2 0x8A7 JUMP JUMPDEST DUP1 DUP5 ADD SWAP2 POP POP SWAP3 SWAP2 POP POP JUMP JUMPDEST PUSH1 0x0 PUSH2 0xA72 DUP3 DUP5 PUSH2 0xA35 JUMP JUMPDEST SWAP2 POP DUP2 SWAP1 POP SWAP3 SWAP2 POP POP JUMP JUMPDEST PUSH32 0x4E487B7100000000000000000000000000000000000000000000000000000000 PUSH1 0x0 MSTORE PUSH1 0x22 PUSH1 0x4 MSTORE PUSH1 0x24 PUSH1 0x0 REVERT JUMPDEST PUSH1 0x0 PUSH1 0x2 DUP3 DIV SWAP1 POP PUSH1 0x1 DUP3 AND DUP1 PUSH2 0xAC4 JUMPI PUSH1 0x7F DUP3 AND SWAP2 POP JUMPDEST PUSH1 0x20 DUP3 LT DUP2 SUB PUSH2 0xAD7 JUMPI PUSH2 0xAD6 PUSH2 0xA7D JUMP JUMPDEST JUMPDEST POP SWAP2 SWAP1 POP JUMP JUMPDEST PUSH32 0x446F6B756D656E207375646168207465726461667461722E0000000000000000 PUSH1 0x0 DUP3 ADD MSTORE POP JUMP JUMPDEST PUSH1 0x0 PUSH2 0xB13 PUSH1 0x18 DUP4 PUSH2 0x896 JUMP JUMPDEST SWAP2 POP PUSH2 0xB1E DUP3 PUSH2 0xADD JUMP JUMPDEST PUSH1 0x20 DUP3 ADD SWAP1 POP SWAP2 SWAP1 POP JUMP JUMPDEST PUSH1 0x0 PUSH1 0x20 DUP3 ADD SWAP1 POP DUP2 DUP2 SUB PUSH1 0x0 DUP4 ADD MSTORE PUSH2 0xB42 DUP2 PUSH2 0xB06 JUMP JUMPDEST SWAP1 POP SWAP2 SWAP1 POP JUMP JUMPDEST PUSH1 0x0 DUP2 SWAP1 POP DUP2 PUSH1 0x0 MSTORE PUSH1 0x20 PUSH1 0x0 KECCAK256 SWAP1 POP SWAP2 SWAP1 POP JUMP JUMPDEST PUSH1 0x0 PUSH1 0x20 PUSH1 0x1F DUP4 ADD DIV SWAP1 POP SWAP2 SWAP1 POP JUMP JUMPDEST PUSH1 0x0 DUP3 DUP3 SHL SWAP1 POP SWAP3 SWAP2 POP POP JUMP JUMPDEST PUSH1 0x0 PUSH1 0x8 DUP4 MUL PUSH2 0xBAB PUSH32 0xFFFFFFFFFFFFFFFFFFFFFFFFFFFFFFFFFFFFFFFFFFFFFFFFFFFFFFFFFFFFFFFF DUP3 PUSH2 0xB6E JUMP JUMPDEST PUSH2 0xBB5 DUP7 DUP4 PUSH2 0xB6E JUMP JUMPDEST SWAP6 POP DUP1 NOT DUP5 AND SWAP4 POP DUP1 DUP7 AND DUP5 OR SWAP3 POP POP POP SWAP4 SWAP3 POP POP POP JUMP JUMPDEST PUSH1 0x0 DUP2 SWAP1 POP SWAP2 SWAP1 POP JUMP JUMPDEST PUSH1 0x0 PUSH2 0xBF2 PUSH2 0xBED PUSH2 0xBE8 DUP5 PUSH2 0x94B JUMP JUMPDEST PUSH2 0xBCD JUMP JUMPDEST PUSH2 0x94B JUMP JUMPDEST SWAP1 POP SWAP2 SWAP1 POP JUMP JUMPDEST PUSH1 0x0 DUP2 SWAP1 POP SWAP2 SWAP1 POP JUMP JUMPDEST PUSH2 0xC0C DUP4 PUSH2 0xBD7 JUMP JUMPDEST PUSH2 0xC20 PUSH2 0xC18 DUP3 PUSH2 0xBF9 JUMP JUMPDEST DUP5 DUP5 SLOAD PUSH2 0xB7B JUMP JUMPDEST DUP3 SSTORE POP POP POP POP JUMP JUMPDEST PUSH1 0x0 SWAP1 JUMP JUMPDEST PUSH2 0xC35 PUSH2 0xC28 JUMP JUMPDEST PUSH2 0xC40 DUP2 DUP5 DUP5 PUSH2 0xC03 JUMP JUMPDEST POP POP POP JUMP JUMPDEST JUMPDEST DUP2 DUP2 LT ISZERO PUSH2 0xC64 JUMPI PUSH2 0xC59 PUSH1 0x0 DUP3 PUSH2 0xC2D JUMP JUMPDEST PUSH1 0x1 DUP2 ADD SWAP1 POP PUSH2 0xC46 JUMP JUMPDEST POP POP JUMP JUMPDEST PUSH1 0x1F DUP3 GT ISZERO PUSH2 0xCA9 JUMPI PUSH2 0xC7A DUP2 PUSH2 0xB49 JUMP JUMPDEST PUSH2 0xC83 DUP5 PUSH2 0xB5E JUMP JUMPDEST DUP2 ADD PUSH1 0x20 DUP6 LT ISZERO PUSH2 0xC92 JUMPI DUP2 SWAP1 POP JUMPDEST PUSH2 0xCA6 PUSH2 0xC9E DUP6 PUSH2 0xB5E JUMP JUMPDEST DUP4 ADD DUP3 PUSH2 0xC45 JUMP JUMPDEST POP POP JUMPDEST POP POP POP JUMP JUMPDEST PUSH1 0x0 DUP3 DUP3 SHR SWAP1 POP SWAP3 SWAP2 POP POP JUMP JUMPDEST PUSH1 0x0 PUSH2 0xCCC PUSH1 0x0 NOT DUP5 PUSH1 0x8 MUL PUSH2 0xCAE JUMP JUMPDEST NOT DUP1 DUP4 AND SWAP2 POP POP SWAP3 SWAP2 POP POP JUMP JUMPDEST PUSH1 0x0 PUSH2 0xCE5 DUP4 DUP4 PUSH2 0xCBB JUMP JUMPDEST SWAP2 POP DUP3 PUSH1 0x2 MUL DUP3 OR SWAP1 POP SWAP3 SWAP2 POP POP JUMP JUMPDEST PUSH2 0xCFE DUP3 PUSH2 0x88B JUMP JUMPDEST PUSH8 0xFFFFFFFFFFFFFFFF DUP2 GT ISZERO PUSH2 0xD17 JUMPI PUSH2 0xD16 PUSH2 0x69F JUMP JUMPDEST JUMPDEST PUSH2 0xD21 DUP3 SLOAD PUSH2 0xAAC JUMP JUMPDEST PUSH2 0xD2C DUP3 DUP3 DUP6 PUSH2 0xC68 JUMP JUMPDEST PUSH1 0x0 PUSH1 0x20 SWAP1 POP PUSH1 0x1F DUP4 GT PUSH1 0x1 DUP2 EQ PUSH2 0xD5F JUMPI PUSH1 0x0 DUP5 ISZERO PUSH2 0xD4D JUMPI DUP3 DUP8 ADD MLOAD SWAP1 POP JUMPDEST PUSH2 0xD57 DUP6 DUP3 PUSH2 0xCD9 JUMP JUMPDEST DUP7 SSTORE POP PUSH2 0xDBF JUMP JUMPDEST PUSH1 0x1F NOT DUP5 AND PUSH2 0xD6D DUP7 PUSH2 0xB49 JUMP JUMPDEST PUSH1 0x0 JUMPDEST DUP3 DUP2 LT ISZERO PUSH2 0xD95 JUMPI DUP5 DUP10 ADD MLOAD DUP3 SSTORE PUSH1 0x1 DUP3 ADD SWAP2 POP PUSH1 0x20 DUP6 ADD SWAP5 POP PUSH1 0x20 DUP2 ADD SWAP1 POP PUSH2 0xD70 JUMP JUMPDEST DUP7 DUP4 LT ISZERO PUSH2 0xDB2 JUMPI DUP5 DUP10 ADD MLOAD PUSH2 0xDAE PUSH1 0x1F DUP10 AND DUP3 PUSH2 0xCBB JUMP JUMPDEST DUP4 SSTORE POP JUMPDEST PUSH1 0x1 PUSH1 0x2 DUP9 MUL ADD DUP9 SSTORE POP POP POP JUMPDEST POP POP POP POP POP POP JUMP JUMPDEST PUSH1 0x0 PUSH1 0x40 DUP3 ADD SWAP1 POP DUP2 DUP2 SUB PUSH1 0x0 DUP4 ADD MSTORE PUSH2 0xDE1 DUP2 DUP6 PUSH2 0x8D1 JUMP JUMPDEST SWAP1 POP DUP2 DUP2 SUB PUSH1 0x20 DUP4 ADD MSTORE PUSH2 0xDF5 DUP2 DUP5 PUSH2 0x8D1 JUMP JUMPDEST SWAP1 POP SWAP4 SWAP3 POP POP POP JUMP JUMPDEST PUSH32 0x446F6B756D656E20746964616B20646974656D756B616E2E0000000000000000 PUSH1 0x0 DUP3 ADD MSTORE POP JUMP JUMPDEST PUSH1 0x0 PUSH2 0xE34 PUSH1 0x18 DUP4 PUSH2 0x896 JUMP JUMPDEST SWAP2 POP PUSH2 0xE3F DUP3 PUSH2 0xDFE JUMP JUMPDEST PUSH1 0x20 DUP3 ADD SWAP1 POP SWAP2 SWAP1 POP JUMP JUMPDEST PUSH1 0x0 PUSH1 0x20 DUP3 ADD SWAP1 POP DUP2 DUP2 SUB PUSH1 0x0 DUP4 ADD MSTORE PUSH2 0xE63 DUP2 PUSH2 0xE27 JUMP JUMPDEST SWAP1 POP SWAP2 SWAP1 POP JUMP JUMPDEST PUSH32 0x416E64612062756B616E2070656D696C696B20646F6B756D656E20696E692E00 PUSH1 0x0 DUP3 ADD MSTORE POP JUMP JUMPDEST PUSH1 0x0 PUSH2 0xEA0 PUSH1 0x1F DUP4 PUSH2 0x896 JUMP JUMPDEST SWAP2 POP PUSH2 0xEAB DUP3 PUSH2 0xE6A JUMP JUMPDEST PUSH1 0x20 DUP3 ADD SWAP1 POP SWAP2 SWAP1 POP JUMP JUMPDEST PUSH1 0x0 PUSH1 0x20 DUP3 ADD SWAP1 POP DUP2 DUP2 SUB PUSH1 0x0 DUP4 ADD MSTORE PUSH2 0xECF DUP2 PUSH2 0xE93 JUMP JUMPDEST SWAP1 POP SWAP2 SWAP1 POP JUMP JUMPDEST PUSH32 0x416C616D61742070656E6572696D6120746964616B2076616C69642E00000000 PUSH1 0x0 DUP3 ADD MSTORE POP JUMP JUMPDEST PUSH1 0x0 PUSH2 0xF0C PUSH1 0x1C DUP4 PUSH2 0x896 JUMP JUMPDEST SWAP2 POP PUSH2 0xF17 DUP3 PUSH2 0xED6 JUMP JUMPDEST PUSH1 0x20 DUP3 ADD SWAP1 POP SWAP2 SWAP1 POP JUMP JUMPDEST PUSH1 0x0 PUSH1 0x20 DUP3 ADD SWAP1 POP DUP2 DUP2 SUB PUSH1 0x0 DUP4 ADD MSTORE PUSH2 0xF3B DUP2 PUSH2 0xEFF JUMP JUMPDEST SWAP1 POP SWAP2 SWAP1 POP JUMP JUMPDEST PUSH1 0x0 PUSH1 0x20 DUP3 ADD SWAP1 POP DUP2 DUP2 SUB PUSH1 0x0 DUP4 ADD MSTORE PUSH2 0xF5C DUP2 DUP5 PUSH2 0x8D1 JUMP JUMPDEST SWAP1 POP SWAP3 SWAP2 POP POP JUMP INVALID LOG2 PUSH5 0x6970667358 0x22 SLT KECCAK256 RETURNDATACOPY CALLDATALOAD 0x4E 0x27 DUP7 CALLER 0x21 PUSH29 0x474DECF2F80C92FB5B2E7104925B012DE504761DEA7FEAD164736F6C63 NUMBER STOP ADDMOD EQ STOP CALLER "},"methodIdentifiers":{"getDocument(string)":"7ccb6a64","registerDocument(string,string)":"1c49ea91","transferDocument(string,address)":"faff6eb5"}}}}}