{
  "_format": "hh-sol-artifact-1",
  "contractName": "SecureDocumentTransfer",
  "sourceName": "contracts/SecureDocumentTransfer.sol",
  "abi": [
    {
      "anonymous": false,
      "inputs": [
        {
          "indexed": false,
          "internalType": "string",
          "name": "docHash",
          "type": "string"
        },
        {
          "indexed": false,
          "internalType": "string",
          "name": "docName",
          "type": "string"
        },
        {
          "indexed": true,
          "internalType": "address",
          "name": "owner",
          "type": "address"
        }
      ],
      "name": "DocumentRegistered",
      "type": "event"
    },
    {
      "anonymous": false,
      "inputs": [
        {
          "indexed": false,
          "internalType": "string",
          "name": "docHash",
          "type": "string"
        },
        {
          "indexed": true,
          "internalType": "address",
          "name": "from",
          "type": "address"
        },
        {
          "indexed": true,
          "internalType": "address",
          "name": "to",
          "type": "address"
        }
      ],
      "name": "DocumentTransferred",
      "type": "event"
    },
    {
      "inputs": [
        {
          "internalType": "string",
          "name": "_docHash",
          "type": "string"
        }
      ],
      "name": "getDocument",
      "outputs": [
        {
          "internalType": "string",
          "name": "docName",
          "type": "string"
        },
        {
          "internalType": "address",
          "name": "owner",
          "type": "address"
        },
        {
          "internalType": "uint256",
          "name": "timestamp",
          "type": "uint256"
        }
      ],
      "stateMutability": "view",
      "type": "function"
    },
    {
      "inputs": [
        {
          "internalType": "string",
          "name": "_docHash",
          "type": "string"
        },
        {
          "internalType": "string",
          "name": "_docName",
          "type": "string"
        }
      ],
      "name": "registerDocument",
      "outputs": [],
      "stateMutability": "nonpayable",
      "type": "function"
    },
    {
      "inputs": [
        {
          "internalType": "string",
          "name": "_docHash",
          "type": "string"
        },
        {
          "internalType": "address",
          "name": "_newOwner",
          "type": "address"
        }
      ],
      "name": "transferDocument",
      "outputs": [],
      "stateMutability": "nonpayable",
      "type": "function"
    }
  ],
  "bytecode": "0x608060405234801561001057600080fd5b50610f9a806100206000396000f3fe608060405234801561001057600080fd5b50600436106100415760003560e01c80631c49ea91146100465780637ccb6a6414610062578063faff6eb514610094575b600080fd5b610060600480360381019061005b91906107ca565b6100b0565b005b61007c60048036038101906100779190610842565b610248565b60405161008b93929190610964565b60405180910390f35b6100ae60048036038101906100a991906109ce565b610489565b005b600080836040516100c19190610a66565b908152602001604051809103902060000180546100dd90610aac565b90501461011f576040517f08c379a000000000000000000000000000000000000000000000000000000000815260040161011690610b29565b60405180910390fd5b60405180608001604052808381526020018281526020013373ffffffffffffffffffffffffffffffffffffffff168152602001428152506000836040516101669190610a66565b908152602001604051809103902060008201518160000190816101899190610cf5565b50602082015181600101908161019f9190610cf5565b5060408201518160020160006101000a81548173ffffffffffffffffffffffffffffffffffffffff021916908373ffffffffffffffffffffffffffffffffffffffff160217905550606082015181600301559050503373ffffffffffffffffffffffffffffffffffffffff167f5492a76eb326b010759123732d35cb2885698a27b0f7b5e56779f227db15c9d2838360405161023c929190610dc7565b60405180910390a25050565b60606000806000808560405161025e9190610a66565b9081526020016040518091039020600001805461027a90610aac565b9050036102bc576040517f08c379a00000000000000000000000000000000000000000000000000000000081526004016102b390610e4a565b60405180910390fd5b600080856040516102cd9190610a66565b90815260200160405180910390206040518060800160405290816000820180546102f690610aac565b80601f016020809104026020016040519081016040528092919081815260200182805461032290610aac565b801561036f5780601f106103445761010080835404028352916020019161036f565b820191906000526020600020905b81548152906001019060200180831161035257829003601f168201915b5050505050815260200160018201805461038890610aac565b80601f01602080910402602001604051908101604052809291908181526020018280546103b490610aac565b80156104015780601f106103d657610100808354040283529160200191610401565b820191906000526020600020905b8154815290600101906020018083116103e457829003601f168201915b505050505081526020016002820160009054906101000a900473ffffffffffffffffffffffffffffffffffffffff1673ffffffffffffffffffffffffffffffffffffffff1673ffffffffffffffffffffffffffffffffffffffff1681526020016003820154815250509050806020015181604001518260600151935093509350509193909250565b3373ffffffffffffffffffffffffffffffffffffffff166000836040516104b09190610a66565b908152602001604051809103902060020160009054906101000a900473ffffffffffffffffffffffffffffffffffffffff1673ffffffffffffffffffffffffffffffffffffffff1614610538576040517f08c379a000000000000000000000000000000000000000000000000000000000815260040161052f90610eb6565b60405180910390fd5b600073ffffffffffffffffffffffffffffffffffffffff168173ffffffffffffffffffffffffffffffffffffffff16036105a7576040517f08c379a000000000000000000000000000000000000000000000000000000000815260040161059e90610f22565b60405180910390fd5b806000836040516105b89190610a66565b908152602001604051809103902060020160006101000a81548173ffffffffffffffffffffffffffffffffffffffff021916908373ffffffffffffffffffffffffffffffffffffffff1602179055508073ffffffffffffffffffffffffffffffffffffffff163373ffffffffffffffffffffffffffffffffffffffff167fa94d757639efc91e9f6715ecf73e64a1ff2533ffca5421a65dfebdae7321151d846040516106649190610f42565b60405180910390a35050565b6000604051905090565b600080fd5b600080fd5b600080fd5b600080fd5b6000601f19601f8301169050919050565b7f4e487b7100000000000000000000000000000000000000000000000000000000600052604160045260246000fd5b6106d78261068e565b810181811067ffffffffffffffff821117156106f6576106f561069f565b5b80604052505050565b6000610709610670565b905061071582826106ce565b919050565b600067ffffffffffffffff8211156107355761073461069f565b5b61073e8261068e565b9050602081019050919050565b82818337600083830152505050565b600061076d6107688461071a565b6106ff565b90508281526020810184848401111561078957610788610689565b5b61079484828561074b565b509392505050565b600082601f8301126107b1576107b0610684565b5b81356107c184826020860161075a565b91505092915050565b600080604083850312156107e1576107e061067a565b5b600083013567ffffffffffffffff8111156107ff576107fe61067f565b5b61080b8582860161079c565b925050602083013567ffffffffffffffff81111561082c5761082b61067f565b5b6108388582860161079c565b9150509250929050565b6000602082840312156108585761085761067a565b5b600082013567ffffffffffffffff8111156108765761087561067f565b5b6108828482850161079c565b91505092915050565b600081519050919050565b600082825260208201905092915050565b60005b838110156108c55780820151818401526020810190506108aa565b60008484015250505050565b60006108dc8261088b565b6108e68185610896565b93506108f68185602086016108a7565b6108ff8161068e565b840191505092915050565b600073ffffffffffffffffffffffffffffffffffffffff82169050919050565b60006109358261090a565b9050919050565b6109458161092a565b82525050565b6000819050919050565b61095e8161094b565b82525050565b6000606082019050818103600083015261097e81866108d1565b905061098d602083018561093c565b61099a6040830184610955565b949350505050565b6109ab8161092a565b81146109b657600080fd5b50565b6000813590506109c8816109a2565b92915050565b600080604083850312156109e5576109e461067a565b5b600083013567ffffffffffffffff811115610a0357610a0261067f565b5b610a0f8582860161079c565b9250506020610a20858286016109b9565b9150509250929050565b600081905092915050565b6000610a408261088b565b610a4a8185610a2a565b9350610a5a8185602086016108a7565b80840191505092915050565b6000610a728284610a35565b915081905092915050565b7f4e487b7100000000000000000000000000000000000000000000000000000000600052602260045260246000fd5b60006002820490506001821680610ac457607f821691505b602082108103610ad757610ad6610a7d565b5b50919050565b7f446f6b756d656e207375646168207465726461667461722e0000000000000000600082015250565b6000610b13601883610896565b9150610b1e82610add565b602082019050919050565b60006020820190508181036000830152610b4281610b06565b9050919050565b60008190508160005260206000209050919050565b60006020601f8301049050919050565b600082821b905092915050565b600060088302610bab7fffffffffffffffffffffffffffffffffffffffffffffffffffffffffffffffff82610b6e565b610bb58683610b6e565b95508019841693508086168417925050509392505050565b6000819050919050565b6000610bf2610bed610be88461094b565b610bcd565b61094b565b9050919050565b6000819050919050565b610c0c83610bd7565b610c20610c1882610bf9565b848454610b7b565b825550505050565b600090565b610c35610c28565b610c40818484610c03565b505050565b5b81811015610c6457610c59600082610c2d565b600181019050610c46565b5050565b601f821115610ca957610c7a81610b49565b610c8384610b5e565b81016020851015610c92578190505b610ca6610c9e85610b5e565b830182610c45565b50505b505050565b600082821c905092915050565b6000610ccc60001984600802610cae565b1980831691505092915050565b6000610ce58383610cbb565b9150826002028217905092915050565b610cfe8261088b565b67ffffffffffffffff811115610d1757610d1661069f565b5b610d218254610aac565b610d2c828285610c68565b600060209050601f831160018114610d5f5760008415610d4d578287015190505b610d578582610cd9565b865550610dbf565b601f198416610d6d86610b49565b60005b82811015610d9557848901518255600182019150602085019450602081019050610d70565b86831015610db25784890151610dae601f891682610cbb565b8355505b6001600288020188555050505b505050505050565b60006040820190508181036000830152610de181856108d1565b90508181036020830152610df581846108d1565b90509392505050565b7f446f6b756d656e20746964616b20646974656d756b616e2e0000000000000000600082015250565b6000610e34601883610896565b9150610e3f82610dfe565b602082019050919050565b60006020820190508181036000830152610e6381610e27565b9050919050565b7f416e64612062756b616e2070656d696c696b20646f6b756d656e20696e692e00600082015250565b6000610ea0601f83610896565b9150610eab82610e6a565b602082019050919050565b60006020820190508181036000830152610ecf81610e93565b9050919050565b7f416c616d61742070656e6572696d6120746964616b2076616c69642e00000000600082015250565b6000610f0c601c83610896565b9150610f1782610ed6565b602082019050919050565b60006020820190508181036000830152610f3b81610eff565b9050919050565b60006020820190508181036000830152610f5c81846108d1565b90509291505056fea26469706673582212203e354e278633217c474decf2f80c92fb5b2e7104925b012de504761dea7fead164736f6c63430008140033",
  "linkReferences": {},
  "deployedLinkReferences": {}
}