{
  "_format": "hh-sol-artifact-1",
  "contractName": "SecureDocumentTransfer",
  "sourceName": "contracts/SecureDocumentTransfer.sol",
  "abi": [
    {
      "anonymous": false,
      "inputs": [
        {
          "indexed": true,
          "internalType": "string",
          "name": "docHash",
          "type": "string"
        },
        {
          "indexed": false,
          "internalType": "string",
          "name": "docName",
          "type": "string"
        },
        {
          "indexed": true,
          "internalType": "address",
          "name": "owner",
          "type": "address"
        },
        {
          "indexed": false,
          "internalType": "string",
          "name": "algorithm",
          "type": "string"
        },
        {
          "indexed": false,
          "internalType": "string",
          "name": "encryptedFileHash",
          "type": "string"
        }
      ],
      "name": "DocumentRegistered",
      "type": "event"
    },
    {
      "anonymous": false,
      "inputs": [
        {
          "indexed": true,
          "internalType": "string",
          "name": "docHash",
          "type": "string"
        },
        {
          "indexed": true,
          "internalType": "address",
          "name": "from",
          "type": "address"
        },
        {
          "indexed": true,
          "internalType": "address",
          "name": "to",
          "type": "address"
        }
      ],
      "name": "DocumentTransferred",
      "type": "event"
    },
    {
      "inputs": [
        {
          "internalType": "string",
          "name": "_docHash",
          "type": "string"
        }
      ],
      "name": "getDocument",
      "outputs": [
        {
          "internalType": "string",
          "name": "docName",
          "type": "string"
        },
        {
          "internalType": "address",
          "name": "owner",
          "type": "address"
        },
        {
          "internalType": "uint256",
          "name": "timestamp",
          "type": "uint256"
        },
        {
          "internalType": "string",
          "name": "encryptedFileHash",
          "type": "string"
        },
        {
          "internalType": "string",
          "name": "encryptedKeyHash",
          "type": "string"
        },
        {
          "internalType": "string",
          "name": "ivHash",
          "type": "string"
        },
        {
          "internalType": "string",
          "name": "algorithm",
          "type": "string"
        }
      ],
      "stateMutability": "view",
      "type": "function"
    },
    {
      "inputs": [
        {
          "internalType": "string",
          "name": "_docHash",
          "type": "string"
        },
        {
          "internalType": "string",
          "name": "_docName",
          "type": "string"
        },
        {
          "internalType": "string",
          "name": "_encryptedFileHash",
          "type": "string"
        },
        {
          "internalType": "string",
          "name": "_encryptedKeyHash",
          "type": "string"
        },
        {
          "internalType": "string",
          "name": "_ivHash",
          "type": "string"
        },
        {
          "internalType": "string",
          "name": "_algorithm",
          "type": "string"
        }
      ],
      "name": "registerDocument",
      "outputs": [],
      "stateMutability": "nonpayable",
      "type": "function"
    },
    {
      "inputs": [
        {
          "internalType": "string",
          "name": "_docHash",
          "type": "string"
        },
        {
          "internalType": "address",
          "name": "_newOwner",
          "type": "address"
        }
      ],
      "name": "transferDocument",
      "outputs": [],
      "stateMutability": "nonpayable",
      "type": "function"
    }
  ],
  "bytecode": "0x608060405234801561001057600080fd5b506113ef806100206000396000f3fe608060405234801561001057600080fd5b50600436106100415760003560e01c806358f9d592146100465780637ccb6a6414610062578063faff6eb514610098575b600080fd5b610060600480360381019061005b9190610b1b565b6100b4565b005b61007c60048036038101906100779190610c50565b6102d9565b60405161008f9796959493929190610d72565b60405180910390f35b6100b260048036038101906100ad9190610e30565b610789565b005b600080876040516100c59190610ec8565b908152602001604051809103902060000180546100e190610f0e565b905014610123576040517f08c379a000000000000000000000000000000000000000000000000000000000815260040161011a90610f8b565b60405180910390fd5b6040518061010001604052808781526020018681526020018581526020018481526020018381526020018281526020013373ffffffffffffffffffffffffffffffffffffffff168152602001428152506000876040516101839190610ec8565b908152602001604051809103902060008201518160000190816101a69190611157565b5060208201518160010190816101bc9190611157565b5060408201518160020190816101d29190611157565b5060608201518160030190816101e89190611157565b5060808201518160040190816101fe9190611157565b5060a08201518160050190816102149190611157565b5060c08201518160060160006101000a81548173ffffffffffffffffffffffffffffffffffffffff021916908373ffffffffffffffffffffffffffffffffffffffff16021790555060e082015181600701559050503373ffffffffffffffffffffffffffffffffffffffff168660405161028e9190610ec8565b60405180910390207ffafa6bdbe2f04d4bb5a3af8dda9de64a3344ff6f9e8c13279d1781f2babf4fa88784886040516102c993929190611229565b60405180910390a3505050505050565b6060600080606080606080600080896040516102f59190610ec8565b9081526020016040518091039020600001805461031190610f0e565b905003610353576040517f08c379a000000000000000000000000000000000000000000000000000000000815260040161034a906112c1565b60405180910390fd5b600080896040516103649190610ec8565b90815260200160405180910390206040518061010001604052908160008201805461038e90610f0e565b80601f01602080910402602001604051908101604052809291908181526020018280546103ba90610f0e565b80156104075780601f106103dc57610100808354040283529160200191610407565b820191906000526020600020905b8154815290600101906020018083116103ea57829003601f168201915b5050505050815260200160018201805461042090610f0e565b80601f016020809104026020016040519081016040528092919081815260200182805461044c90610f0e565b80156104995780601f1061046e57610100808354040283529160200191610499565b820191906000526020600020905b81548152906001019060200180831161047c57829003601f168201915b505050505081526020016002820180546104b290610f0e565b80601f01602080910402602001604051908101604052809291908181526020018280546104de90610f0e565b801561052b5780601f106105005761010080835404028352916020019161052b565b820191906000526020600020905b81548152906001019060200180831161050e57829003601f168201915b5050505050815260200160038201805461054490610f0e565b80601f016020809104026020016040519081016040528092919081815260200182805461057090610f0e565b80156105bd5780601f10610592576101008083540402835291602001916105bd565b820191906000526020600020905b8154815290600101906020018083116105a057829003601f168201915b505050505081526020016004820180546105d690610f0e565b80601f016020809104026020016040519081016040528092919081815260200182805461060290610f0e565b801561064f5780601f106106245761010080835404028352916020019161064f565b820191906000526020600020905b81548152906001019060200180831161063257829003601f168201915b5050505050815260200160058201805461066890610f0e565b80601f016020809104026020016040519081016040528092919081815260200182805461069490610f0e565b80156106e15780601f106106b6576101008083540402835291602001916106e1565b820191906000526020600020905b8154815290600101906020018083116106c457829003601f168201915b505050505081526020016006820160009054906101000a900473ffffffffffffffffffffffffffffffffffffffff1673ffffffffffffffffffffffffffffffffffffffff1673ffffffffffffffffffffffffffffffffffffffff168152602001600782015481525050905080602001518160c001518260e001518360400151846060015185608001518660a00151975097509750975097509750975050919395979092949650565b3373ffffffffffffffffffffffffffffffffffffffff166000836040516107b09190610ec8565b908152602001604051809103902060060160009054906101000a900473ffffffffffffffffffffffffffffffffffffffff1673ffffffffffffffffffffffffffffffffffffffff1614610838576040517f08c379a000000000000000000000000000000000000000000000000000000000815260040161082f9061132d565b60405180910390fd5b600073ffffffffffffffffffffffffffffffffffffffff168173ffffffffffffffffffffffffffffffffffffffff16036108a7576040517f08c379a000000000000000000000000000000000000000000000000000000000815260040161089e90611399565b60405180910390fd5b600080836040516108b89190610ec8565b908152602001604051809103902060060160009054906101000a900473ffffffffffffffffffffffffffffffffffffffff169050816000846040516108fd9190610ec8565b908152602001604051809103902060060160006101000a81548173ffffffffffffffffffffffffffffffffffffffff021916908373ffffffffffffffffffffffffffffffffffffffff1602179055508173ffffffffffffffffffffffffffffffffffffffff168173ffffffffffffffffffffffffffffffffffffffff16846040516109889190610ec8565b60405180910390207fa94d757639efc91e9f6715ecf73e64a1ff2533ffca5421a65dfebdae7321151d60405160405180910390a4505050565b6000604051905090565b600080fd5b600080fd5b600080fd5b600080fd5b6000601f19601f8301169050919050565b7f4e487b7100000000000000000000000000000000000000000000000000000000600052604160045260246000fd5b610a28826109df565b810181811067ffffffffffffffff82111715610a4757610a466109f0565b5b80604052505050565b6000610a5a6109c1565b9050610a668282610a1f565b919050565b600067ffffffffffffffff821115610a8657610a856109f0565b5b610a8f826109df565b9050602081019050919050565b82818337600083830152505050565b6000610abe610ab984610a6b565b610a50565b905082815260208101848484011115610ada57610ad96109da565b5b610ae5848285610a9c565b509392505050565b600082601f830112610b0257610b016109d5565b5b8135610b12848260208601610aab565b91505092915050565b60008060008060008060c08789031215610b3857610b376109cb565b5b600087013567ffffffffffffffff811115610b5657610b556109d0565b5b610b6289828a01610aed565b965050602087013567ffffffffffffffff811115610b8357610b826109d0565b5b610b8f89828a01610aed565b955050604087013567ffffffffffffffff811115610bb057610baf6109d0565b5b610bbc89828a01610aed565b945050606087013567ffffffffffffffff811115610bdd57610bdc6109d0565b5b610be989828a01610aed565b935050608087013567ffffffffffffffff811115610c0a57610c096109d0565b5b610c1689828a01610aed565b92505060a087013567ffffffffffffffff811115610c3757610c366109d0565b5b610c4389828a01610aed565b9150509295509295509295565b600060208284031215610c6657610c656109cb565b5b600082013567ffffffffffffffff811115610c8457610c836109d0565b5b610c9084828501610aed565b91505092915050565b600081519050919050565b600082825260208201905092915050565b60005b83811015610cd3578082015181840152602081019050610cb8565b60008484015250505050565b6000610cea82610c99565b610cf48185610ca4565b9350610d04818560208601610cb5565b610d0d816109df565b840191505092915050565b600073ffffffffffffffffffffffffffffffffffffffff82169050919050565b6000610d4382610d18565b9050919050565b610d5381610d38565b82525050565b6000819050919050565b610d6c81610d59565b82525050565b600060e0820190508181036000830152610d8c818a610cdf565b9050610d9b6020830189610d4a565b610da86040830188610d63565b8181036060830152610dba8187610cdf565b90508181036080830152610dce8186610cdf565b905081810360a0830152610de28185610cdf565b905081810360c0830152610df68184610cdf565b905098975050505050505050565b610e0d81610d38565b8114610e1857600080fd5b50565b600081359050610e2a81610e04565b92915050565b60008060408385031215610e4757610e466109cb565b5b600083013567ffffffffffffffff811115610e6557610e646109d0565b5b610e7185828601610aed565b9250506020610e8285828601610e1b565b9150509250929050565b600081905092915050565b6000610ea282610c99565b610eac8185610e8c565b9350610ebc818560208601610cb5565b80840191505092915050565b6000610ed48284610e97565b915081905092915050565b7f4e487b7100000000000000000000000000000000000000000000000000000000600052602260045260246000fd5b60006002820490506001821680610f2657607f821691505b602082108103610f3957610f38610edf565b5b50919050565b7f446f6b756d656e207375646168207465726461667461722e0000000000000000600082015250565b6000610f75601883610ca4565b9150610f8082610f3f565b602082019050919050565b60006020820190508181036000830152610fa481610f68565b9050919050565b60008190508160005260206000209050919050565b60006020601f8301049050919050565b600082821b905092915050565b60006008830261100d7fffffffffffffffffffffffffffffffffffffffffffffffffffffffffffffffff82610fd0565b6110178683610fd0565b95508019841693508086168417925050509392505050565b6000819050919050565b600061105461104f61104a84610d59565b61102f565b610d59565b9050919050565b6000819050919050565b61106e83611039565b61108261107a8261105b565b848454610fdd565b825550505050565b600090565b61109761108a565b6110a2818484611065565b505050565b5b818110156110c6576110bb60008261108f565b6001810190506110a8565b5050565b601f82111561110b576110dc81610fab565b6110e584610fc0565b810160208510156110f4578190505b61110861110085610fc0565b8301826110a7565b50505b505050565b600082821c905092915050565b600061112e60001984600802611110565b1980831691505092915050565b6000611147838361111d565b9150826002028217905092915050565b61116082610c99565b67ffffffffffffffff811115611179576111786109f0565b5b6111838254610f0e565b61118e8282856110ca565b600060209050601f8311600181146111c157600084156111af578287015190505b6111b9858261113b565b865550611221565b601f1984166111cf86610fab565b60005b828110156111f7578489015182556001820191506020850194506020810190506111d2565b868310156112145784890151611210601f89168261111d565b8355505b6001600288020188555050505b505050505050565b600060608201905081810360008301526112438186610cdf565b905081810360208301526112578185610cdf565b9050818103604083015261126b8184610cdf565b9050949350505050565b7f446f6b756d656e20746964616b20646974656d756b616e2e0000000000000000600082015250565b60006112ab601883610ca4565b91506112b682611275565b602082019050919050565b600060208201905081810360008301526112da8161129e565b9050919050565b7f416e64612062756b616e2070656d696c696b20646f6b756d656e20696e692e00600082015250565b6000611317601f83610ca4565b9150611322826112e1565b602082019050919050565b600060208201905081810360008301526113468161130a565b9050919050565b7f416c616d61742070656e6572696d6120746964616b2076616c69642e00000000600082015250565b6000611383601c83610ca4565b915061138e8261134d565b602082019050919050565b600060208201905081810360008301526113b281611376565b905091905056fea264697066735822122067060d270c729d50dce1f08afedb617af16601813fdc375cb71561b55419195c64736f6c63430008140033",
  "linkReferences": {},
  "deployedLinkReferences": {}
}